{
  "contractName": "MyStringStore",
  "abi": [
    {
      "anonymous": false,
      "inputs": [
        {
          "indexed": false,
          "internalType": "string",
          "name": "value",
          "type": "string"
        }
      ],
      "name": "SetString",
      "type": "event"
    },
    {
      "anonymous": false,
      "inputs": [
        {
          "indexed": false,
          "internalType": "string",
          "name": "oldValue",
          "type": "string"
        },
        {
          "indexed": false,
          "internalType": "string",
          "name": "newValue",
          "type": "string"
        }
      ],
      "name": "UpdateString",
      "type": "event"
    },
    {
      "inputs": [],
      "name": "myString",
      "outputs": [
        {
          "internalType": "string",
          "name": "",
          "type": "string"
        }
      ],
      "stateMutability": "view",
      "type": "function"
    },
    {
      "inputs": [
        {
          "internalType": "string",
          "name": "x",
          "type": "string"
        }
      ],
      "name": "set",
      "outputs": [],
      "stateMutability": "nonpayable",
      "type": "function"
    },
    {
      "inputs": [
        {
          "internalType": "string",
          "name": "newValue",
          "type": "string"
        }
      ],
      "name": "update",
      "outputs": [],
      "stateMutability": "nonpayable",
      "type": "function"
    }
  ],
  "bytecode": "0x60806040526040518060400160405280600b81526020017f48656c6c6f20576f726c640000000000000000000000000000000000000000008152506000908051906020019061004f929190610062565b5034801561005c57600080fd5b50610166565b82805461006e90610134565b90600052602060002090601f01602090048101928261009057600085556100d7565b82601f106100a957805160ff19168380011785556100d7565b828001600101855582156100d7579182015b828111156100d65782518255916020019190600101906100bb565b5b5090506100e491906100e8565b5090565b5b808211156101015760008160009055506001016100e9565b5090565b7f4e487b7100000000000000000000000000000000000000000000000000000000600052602260045260246000fd5b6000600282049050600182168061014c57607f821691505b602082108114156101605761015f610105565b5b50919050565b61061b806101756000396000f3fe608060405234801561001057600080fd5b50600436106100415760003560e01c80633d7403a314610046578063492bfa18146100625780634ed3885e14610080575b600080fd5b610060600480360381019061005b919061045a565b61009c565b005b61006a61017e565b604051610077919061052b565b60405180910390f35b61009a6004803603810190610095919061045a565b61020c565b005b60008080546100aa9061057c565b80601f01602080910402602001604051908101604052809291908181526020018280546100d69061057c565b80156101235780601f106100f857610100808354040283529160200191610123565b820191906000526020600020905b81548152906001019060200180831161010657829003601f168201915b50505050509050816000908051906020019061014092919061025d565b507fd01b3307b453706ae8f58453b25b2c26e6460c8f31c72e13a2b853e4e7f45c0f81836040516101729291906105ae565b60405180910390a15050565b6000805461018b9061057c565b80601f01602080910402602001604051908101604052809291908181526020018280546101b79061057c565b80156102045780601f106101d957610100808354040283529160200191610204565b820191906000526020600020905b8154815290600101906020018083116101e757829003601f168201915b505050505081565b806000908051906020019061022292919061025d565b507faca7bbe148e406c46e1cbcbe436b7316e446b784cdbf5c2d8b01fb6be5af5af881604051610252919061052b565b60405180910390a150565b8280546102699061057c565b90600052602060002090601f01602090048101928261028b57600085556102d2565b82601f106102a457805160ff19168380011785556102d2565b828001600101855582156102d2579182015b828111156102d15782518255916020019190600101906102b6565b5b5090506102df91906102e3565b5090565b5b808211156102fc5760008160009055506001016102e4565b5090565b6000604051905090565b600080fd5b600080fd5b600080fd5b600080fd5b6000601f19601f8301169050919050565b7f4e487b7100000000000000000000000000000000000000000000000000000000600052604160045260246000fd5b6103678261031e565b810181811067ffffffffffffffff821117156103865761038561032f565b5b80604052505050565b6000610399610300565b90506103a5828261035e565b919050565b600067ffffffffffffffff8211156103c5576103c461032f565b5b6103ce8261031e565b9050602081019050919050565b82818337600083830152505050565b60006103fd6103f8846103aa565b61038f565b90508281526020810184848401111561041957610418610319565b5b6104248482856103db565b509392505050565b600082601f83011261044157610440610314565b5b81356104518482602086016103ea565b91505092915050565b6000602082840312156104705761046f61030a565b5b600082013567ffffffffffffffff81111561048e5761048d61030f565b5b61049a8482850161042c565b91505092915050565b600081519050919050565b600082825260208201905092915050565b60005b838110156104dd5780820151818401526020810190506104c2565b838111156104ec576000848401525b50505050565b60006104fd826104a3565b61050781856104ae565b93506105178185602086016104bf565b6105208161031e565b840191505092915050565b6000602082019050818103600083015261054581846104f2565b905092915050565b7f4e487b7100000000000000000000000000000000000000000000000000000000600052602260045260246000fd5b6000600282049050600182168061059457607f821691505b602082108114156105a8576105a761054d565b5b50919050565b600060408201905081810360008301526105c881856104f2565b905081810360208301526105dc81846104f2565b9050939250505056fea2646970667358221220617ba5458ebf7faec73198e4d02a7dba7053d10ab1dba8fbdfe9a91187f9411c64736f6c634300080a0033",
  "immutableReferences": {},
  "source": "// SPDX-License-Identifier: MIT\npragma solidity >=0.4.22 <0.9.0;\n\ncontract MyStringStore {\n    string public myString = \"Hello World\";\n\n    event SetString(string value);\n    event UpdateString(string oldValue, string newValue);\n\n    function set(string memory x) public {\n        myString = x;\n        emit SetString(x);\n    }\n\n    function update(string memory newValue) public {\n        string memory oldValue = myString;\n        myString = newValue;\n        emit UpdateString(oldValue, newValue);\n    }\n}\n",
  "sourcePath": "/home/balajishettypachai/Desktop/learning/learn-blockchain/contracts/sample-contract/MyStringStore.sol",
  "compiler": {
    "name": "solc",
    "version": "0.8.10+commit.fc410830.Emscripten.clang"
  },
  "schemaVersion": "3.4.4",
  "updatedAt": "2022-01-11T05:54:52.533Z",
  "devdoc": {
    "kind": "dev",
    "methods": {},
    "version": 1
  },
  "userdoc": {
    "kind": "user",
    "methods": {},
    "version": 1
  }
}